:020000040800F2
:10000000005000206D2800086127000869270008BB
:10001000752700087D2700088527000800000000DC
:100020000000000000000000000000008D27000814
:100030009927000800000000A5270008B127000844
:10004000B5280008B5280008B5280008B52800081C
:10005000B5280008B5280008B5280008B52800080C
:10006000B5280008B5280008B5280008B5280008FC
:10007000B5280008B5280008B5280008B5280008EC
:10008000B5280008B5280008B5280008B5280008DC
:10009000B5280008B5280008B5280008B5280008CC
:1000A000B5280008B5280008B5280008B5280008BC
:1000B000BD270008D1270008B5280008B52800088A
:1000C000B5280008B5280008B5280008B52800089C
:1000D000B5280008B5280008B5280008B52800088C
:1000E000E5270008B5280008B52800080000000032
:1000F0000000000000000000000000000000000000
:0C01000000000000000000005FF808F1A3
:10010C0010B5054C237833B9044B13B10448AFF345
:10011C0000800123237010BDA80000200000000007
:10012C006051000808B5034B1BB103490348AFF3FA
:10013C00008008BD00000000AC00002060510008E9
:10014C00B0B58AB000AFF860B9607A60134B022288
:10015C001A6002F0AFFD0023BB61FB683B62BA681A
:10016C00FB68D31A9B0A7B6200237B6107F11402A4
:10017C0007F118031146184602F084FE7B68002232
:10018C001C46154622462B46F968022002F022FD39
:10019C0002F0B6FD00BF2837BD46B0BDC40000203C
:1001AC0080B483B000AF78607B681B689BB2184644
:1001BC000C37BD4680BC704780B586B002AF786006
:1001CC00084611461A460346FB700B46BB70134695
:1001DC007B7097F9023023F00F035AB2374B1B7820
:1001EC005BB213435BB2DAB27B781343DBB243F0FE
:1001FC000403DBB23B7307F10C020A2300930123C7
:10020C004E21786803F018FA012002F0B1FB97F93F
:10021C00023023F00F035AB2284B1B785BB2134306
:10022C005AB297F9013013435BB2DBB23B7307F15F
:10023C000C020A23009301234E21786803F0FCF989
:10024C00012002F095FBBB781B015AB21B4B1B78AB
:10025C005BB213435AB297F9013013435BB243F0CC
:10026C0004035BB2DBB23B7307F10C020A2300936D
:10027C0001234E21786803F0DFF9012002F078FBAE
:10028C00BB781B015AB20D4B1B785BB213435AB2AD
:10029C0097F9013013435BB2DBB23B7307F10C02ED
:1002AC000A23009301234E21786803F0C5F901203D
:1002BC0002F05EFB00BF1037BD4680BD0000002081
:1002CC0080B582B000AF7860194A7B681360184B18
:1002DC001868002330224E21FFF76EFF144B18686C
:1002EC00002330224E21FFF767FF114B18680023C3
:1002FC0030224E21FFF760FF0D4B186800230822B7
:10030C004E21FFF759FF0A4B186800230D224E218E
:10031C00FFF752FF064B1868002306224E21FFF709
:10032C004BFF00F007F800BF0837BD4680BD00BF8B
:10033C00CC00002080B500AF074B186800230122C9
:10034C004E21FFF739FF044B1868002302224E217F
:10035C00FFF732FF00BF80BDCC00002080B582B01B
:10036C0000AF0346FB71134AFB791370124B1868EC
:10037C00002300224E21FFF71FFF0F4B18680F4B75
:10038C001B789B005BB243F008035AB20C4B1B78F2
:10039C005B005BB213435AB2064B1B785BB2134340
:1003AC005BB2DAB200234E21FFF706FF00BF08371D
:1003BC00BD4680BDC9000020CC00002001000020FB
:1003CC00C800002080B582B000AF0346FB71134A11
:1003DC00FB791370124B1868002300224E21FFF793
:1003EC00EBFE0F4B18680F4B1B789B005BB243F076
:1003FC0008035AB2094B1B785B005BB213435AB229
:10040C00094B1B785BB213435BB2DAB200234E216B
:10041C00FFF7D2FE00BF0837BD4680BDC8000020E4
:10042C00CC00002001000020C900002080B400AFE7
:10043C00034B00221A6000BFBD4680BC704700BF52
:10044C00D000002080B586B000AFF860B9607A604B
:10045C00182004F035FD03463B613B69FA681A60CD
:10046C00BA683B695A603B697A689A603B690022BA
:10047C001A731D4B1B685A1C1B490A603A6913619D
:10048C001A4B7B610BE03B695A687B691B685B68A4
:10049C00D21A3B695A607B691B6814337B617B6998
:1004AC001B68002B06D03B695A687B691B685B682C
:1004BC009A42E8DA7B691A683B695A617B693A6946
:1004CC001A603B695B69002B08D03B695B69596812
:1004DC003B695A683B695B698A1A5A603B691B69BC
:1004EC0018461837BD4680BDD4000020D00000202F
:1004FC0080B586B000AFF860B9607A603B601820B8
:10050C0004F0DEFC03463B613B69FA681A60BA688A
:10051C003B695A603B697A689A603B6900221A739E
:10052C003A683B691A61194B7B610BE03B695A686D
:10053C007B691B685B68D21A3B695A607B691B68D4
:10054C0014337B617B691B68002B06D03B695A68AE
:10055C007B691B685B689A42E8DA7B691A683B69BD
:10056C005A617B693A691A603B695B69002B08D058
:10057C003B695B6959683B695A683B695B698A1AD4
:10058C005A6000BF1837BD4680BD00BFD0000020A8
:10059C0080B582B000AF074B1B687B60054B1B68B6
:1005AC005B69044A1360786804F092FC00BF08375A
:1005BC00BD4680BDD000002080B584B000AF78600F
:1005CC00114BFB6003E0FB681B681433FB60FB689A
:1005DC001B68002B05D0FB681B681B697A689A4264
:1005EC00F1D1FB681B68002B0AD0FB681B68BB6051
:1005FC00FB681B685A69FB681A60B86804F068FCF1
:10060C0000BF1037BD4680BDD000002080B400AFC5
:10061C00074B1B68002B06D0054B1B685A68044B14
:10062C001B68013A5A6000BFBD4680BC704700BFD2
:10063C00D000002080B584B000AF154B1B68002B98
:10064C0021D0134B1B685B68002B1CDC104B1B6808
:10065C001B6898470E4B1B689B68002B11D00C4BEA
:10066C001B681B68FB600A4B1B689B68BB60084BD4
:10067C001B681B697B60F8687B68BA68B968FFF710
:10068C0037FFFFF785FF00BF1037BD4680BD00BFA9
:10069C00D000002080B582B000AF7860FFF7B6FFC5
:1006AC0000BF0837BD4680BD80B588B002AFF8608A
:1006BC00B9607A603B607B6A01933B6A00933B684C
:1006CC007A68B968F86800F0B7FE194ABB6A13601B
:1006DC00174A3B6B5360174AFB6A1360154A7B6BD6
:1006EC005360154ABB6B1360134A3B6C5360134A3F
:1006FC00FB6B1360114A7B6C53601148FFF750FD84
:10070C0078617B691B0E012B0DD17B691B0CDBB255
:10071C000C4A13607B691B0ADBB20B4A13607B69C2
:10072C00DBB20A4A136000BF1837BD4680BD00BF5C
:10073C0008010020180100201001002020010020D9
:10074C0000FC010824000020280000202C000020C0
:10075C0080B500AF9B4B1B68002B04D1994B012239
:10076C001A6000F02FFA984B1B78052B00F2DD81F4
:10077C0001A252F823F000BF15080008CF080008AA
:10078C00890900089D070008AF0A0008D50A00086F
:10079C00012000F045FF0346002B0CD0012000F097
:1007AC0059FF0346002B06D1002000F007FC874BB5
:1007BC0001221A60C4E1022000F032FF0346002B34
:1007CC000CD0022000F046FF0346002B06D104207B
:1007DC0000F0F4FB7D4B01221A60B1E1032000F024
:1007EC001FFF0346002B0CD0032000F033FF034601
:1007FC00002B06D1052000F0E1FB744B01221A609E
:10080C009EE100F0ADF99BE1012000F009FF0346E9
:10081C00002B05D0012000F01DFF0346002B0BD050
:10082C00032000F0FDFE0346002B15D0032000F042
:10083C0011FF0346002B0FD1654B1A68654B1B68E3
:10084C009A4202D0644B01221A60012000F0B6FBE0
:10085C005E4B01221A6073E1022000F0E1FE0346B8
:10086C00002B08D0022000F0F5FE0346002B02D12D
:10087C00574800F073FB022000F0ECFE0346002BFF
:10088C000FD0564B1B68B3F1FF3F40F05081002254
:10089C004FF4AF615248FFF7D5FD03464F4A136042
:1008AC0045E14E4B1B68B3F1FF3F00F040814B4BD1
:1008BC001B681846FFF780FE484B4FF0FF321A605A
:1008CC0035E1012000F0ACFE0346002B05D00120E1
:1008DC0000F0C0FE0346002B0BD0032000F0A0FE5E
:1008EC000346002B15D0032000F0B4FE0346002B6A
:1008FC000FD1374B5A683B4B1B689A4202D0364B90
:10090C0001221A60022000F059FB304B01221A60C0
:10091C0016E1022000F084FE0346002B08D00220D2
:10092C0000F098FE0346002B02D12F4800F016FB76
:10093C00022000F08FFE0346002B0FD0274B1B68C4
:10094C00B3F1FF3F40F0F58000224FF4AF61244833
:10095C00FFF778FD0346214A1360EAE01F4B1B6842
:10096C00B3F1FF3F00F0E5801C4B1B681846FFF706
:10097C0023FE1A4B4FF0FF321A60DAE0022000F02F
:10098C004FFE0346002B08D0022000F063FE034606
:10099C00002B02D1154800F0E1FA022000F05AFEBB
:1009AC000346002B24D00D4B1B68B3F1FF3F2DD118
:1009BC0000224FF4AF610A48FFF744FD0346074A93
:1009CC00136023E0D8000020080000200400002061
:1009DC001800002024000020DC000020340000203F
:1009EC0045120008280000201C00002020000020D8
:1009FC00544B1B68B3F1FF3F08D0524B1B68184691
:100A0C00FFF7DAFD4F4B4FF0FF321A60012000F078
:100A1C0007FE0346002B05D0012000F01BFE034609
:100A2C00002B0CD0032000F0FBFD0346002B00F044
:100A3C008280032000F00EFE0346002B7BD1424B3C
:100A4C009A68424B1B689A4202D0414B01221A60B1
:100A5C003F4B1B68002B19D03B4B1A683A4B59681B
:100A6C00394B9B680B449A420BD000F08DFA002056
:100A7C0000F0A4FA374B01221A60354B00221A60A1
:100A8C005EE000F039FA324B00221A60304B1B68E2
:100A9C00002B50D1032000F091FA2E4B01221A604A
:100AAC0049E0022000F0BCFD0346002B45D002209B
:100ABC0000F0D0FD0346002B3FD1032000F07EFA5E
:100ACC00244B01221A6038E0032000F0A9FD0346F4
:100ADC00002B17D0032000F0BDFD0346002B11D1D5
:100AEC001D4B1B68002B04D01C4B1B681846FFF7D2
:100AFC0063FD032000F062FA164B01221A60164BBC
:100B0C0000221A60012000F08BFD0346002B16D04A
:100B1C00012000F09FFD0346002B10D10E4B1B68EB
:100B2C00002B0CD100F03EFB09E000BF08E000BF39
:100B3C0006E000BF04E000BF02E000BF00E000BF21
:100B4C0080BD00BF34000020180000202C000020C5
:100B5C00DC00002004000020E00000201000002039
:100B6C0080B500AF124B1B68B3F57A7F1CDB114BC1
:100B7C001B68013B0F4A13600F4B1B68013B0E4A6D
:100B8C0013600B4B00221A600A4B1B68002B0BDC0A
:100B9C0000F044F8094B5B78032B04D1084B1B681D
:100BAC00054A136000E000BF00F066F800BF80BD8E
:100BBC00F40000201400002030000020E40000208D
:100BCC002400002080B400AF0D4B1B78052B05D101
:100BDC000C4B1B68DAB20C4B1A7002E00A4B012268
:100BEC001A70094B03225A70084B1B68084A136091
:100BFC00084B1B68084A136000BFBD4680BC704799
:100C0C00080000200C000020E40000202C00002034
:100C1C0014000020240000203000002080B400AF1D
:100C2C00114B5B78022B09D0032B19D10E4B0222EE
:100C3C005A700E4B1B680E4A136012E00A4B0322CB
:100C4C005A70094B1B78002B0CBF01230023DBB21D
:100C5C001A46054B1A70074B1B68054A136000E0D7
:100C6C0000BFBD4680BC7047E40000202800002077
:100C7C00140000202C00002080B500AF434B1B78E3
:100C8C00002B3ED0414B5B78022B14D0032B25D18B
:100C9C003F4B1B683F4A126891B20122184602F082
:100CAC0034FB3B4B5B683B4A526891B200221846BE
:100CBC0002F02BFB13E0364B1B68364A126891B2DC
:100CCC000022184602F021FB314B5B68314A526816
:100CDC0091B20122184602F018FB00E000BF2E4B27
:100CEC001B682E4A126891B20122184602F00DFBC5
:100CFC00294B5B68294A526891B20122184602F0CE
:100D0C0004FB224B1B78002B3ED1204B5B78022B33
:100D1C0014D0032B25D1204B1B68204A126891B2AA
:100D2C000122184602F0F1FA1B4B5B681B4A526811
:100D3C0091B20022184602F0E8FA13E0164B1B6839
:100D4C00164A126891B20022184602F0DEFA124BD3
:100D5C005B68124A526891B20122184602F0D5FA29
:100D6C0000E000BF0A4B1B680A4A126891B20122CC
:100D7C00184602F0CAFA064B5B68064A526891B2F2
:100D8C000122184602F0C1FA00BF80BDE400002029
:100D9C000801002018010020100100202001002073
:100DAC0080B500AF124B1B68124A126891B2002238
:100DBC00184602F0AAFA0E4B5B680E4A526891B2C2
:100DCC000022184602F0A1FA0B4B1B680B4A126862
:100DDC0091B20022184602F098FA074B5B68074A5A
:100DEC00526891B20022184602F08FFA00BF80BD03
:100DFC000801002018010020100100202001002013
:100E0C0080B483B000AF0346FB71FB79022B46D054
:100E1C00022B64DC002B02D0012B20D05FE0334B83
:100E2C0000221A60314B01225A60314B1B68314A47
:100E3C0082FB03129210DB17D31A2C4A93602C4BB3
:100E4C0019682C4B83FB01239A10CB17D21A13462B
:100E5C009B0013445B00CA1A244BDA6040E0234B1E
:100E6C0000221A60214B02225A60214B5B68214AF6
:100E7C0082FB03129210DB17D31A1C4A93601C4B93
:100E8C0059681C4B83FB01239A10CB17D21A1346BB
:100E9C009B0013445B00CA1A144BDA6020E0134B1E
:100EAC0000221A60114B03225A60114B9B68114AA5
:100EBC0082FB03129210DB17D31A0C4A93600C4B73
:100ECC0099680C4B83FB01239A10CB17D21A13464B
:100EDC009B0013445B00CA1A044BDA6000E000BFAD
:100EEC0000BF0C37BD4680BC704700BFF800002027
:100EFC00180000206766666680B582B000AF114BA3
:100F0C001B68114A13600F4B5B68104A13600D4B42
:100F1C009B680F4A13600C4B1B681B041A460B4B47
:100F2C001B681B0213430A4A1268134343F0807375
:100F3C007B607A6807490848FFF702F900BF083759
:100F4C00BD4680BD18000020240000202800002091
:100F5C002C0000200000020800FC010880B483B0C3
:100F6C0000AF78607B681B685A1C7B681A607B68D2
:100F7C001B68632B02DD7B6801221A6000BF0C37F3
:100F8C00BD4680BC7047000080B400AF074B1B68A7
:100F9C00074A1360074B1B68054A5360064B1B68D6
:100FAC00034A936000BFBD4680BC704724000020FC
:100FBC0018000020280000202C00002080B582B0F2
:100FCC0000AF0346FB71FB79032B11D0FFF7E8FE52
:100FDC00FB79052B04D0FB791846FFF711FF09E0CC
:100FEC00094B1B781A46094B1A6000F015F801E002
:100FFC00FFF7E8FD064AFB791370064B00221A60D6
:10100C0000BF0837BD4680BDE40000200C00002066
:10101C0008000020E800002080B500AF274B1B68BB
:10102C00002B24D0264B1B68264A126891B2012251
:10103C00184602F06AF9224B5B68224A526891B258
:10104C000022184602F061F91F4B1B681F4A1268F8
:10105C0091B20122184602F058F91B4B5B681B4AEF
:10106C00526891B20122184602F04FF923E0164B58
:10107C001B68164A126891B20122184602F045F913
:10108C00114B5B68114A526891B20022184602F06B
:10109C003CF90B4B1B680B4A126891B201221846A3
:1010AC0002F033F9064B5B68064A526891B2012292
:1010BC00184602F02AF900BF80BD00BF0C000020CA
:1010CC000801002018010020100100202001002040
:1010DC0080B500AF2D4B1B68002B24D02C4B1B680C
:1010EC002C4A126891B20122184602F00EF9284BD4
:1010FC005B68284A526891B20122184602F005F941
:10110C00254B1B68254A126891B20122184602F041
:10111C00FCF8214B5B68214A526891B200221846B8
:10112C0002F0F3F823E01C4B1B681C4A126891B2C6
:10113C000122184602F0E9F8174B5B68174A52680F
:10114C0091B20122184602F0E0F8114B1B68114ACB
:10115C00126891B20122184602F0D7F80C4B5B686A
:10116C000C4A526891B20022184602F0CEF8074B96
:10117C001B68002B0CBF01230023DBB21A46034B68
:10118C001A60074B00221A6000BF80BD0C000020C3
:10119C00080100201801002010010020200100206F
:1011AC00E000002080B500AF1B4B1B68002B12D059
:1011BC001A4B1B681A4A126891B20022184602F0A8
:1011CC00A4F8164B5B68164A526891B20122184675
:1011DC0002F09BF811E0134B1B68134A126891B292
:1011EC000022184602F091F80E4B5B680E4A5268CA
:1011FC0091B20122184602F088F800224FF4FA61ED
:10120C000A48FFF71FF90346094A1360094B0122EC
:10121C001A6000BF80BD00BF0C0000200801002038
:10122C00180100201001002020010020DD10000812
:10123C0010000020E000002080B500AF022000F07C
:10124C0009FA0346002B08D04FF4A572002104487C
:10125C00FFF7F8F80346034A136000BF80BD00BFD8
:10126C00751200083400002080B500AF0C4B1B78C1
:10127C00022B0ED0022B10DC002B02D0012B04D041
:10128C000BE00848FFF76AFE08E00748FFF766FE28
:10129C0004E00648FFF762FE00E000BF00BF80BD1F
:1012AC0008000020180000201C0000202000002056
:1012BC0080B500AF544B1B680133534A1360524B3B
:1012CC001A68524B1B689A42C0F283804E4B002224
:1012DC001A604F4B1B78042B78D801A252F823F0DC
:1012EC00011300084B13000871130008D9130008F0
:1012FC0097130008474B1B68474A126892B2114675
:10130C00184602F01AF8434B5B68434A526892B293
:10131C001146184602F011F8404B1B68404A1268FF
:10132C0092B21146184602F008F83C4B5B683C4AF6
:10133C00526892B21146184601F0FFFF49E0354B56
:10134C005B68354A526892B21146184601F0F5FFB7
:10135C00324B5B68324A526892B21146184601F021
:10136C00ECFF36E02B4B1B682B4A126892B21146ED
:10137C00184601F0E2FF294B1B68294A126892B209
:10138C001146184601F0D9FF23E0264B1B680133A8
:10139C00244A1360234B1A68234B1B689A4217DBB1
:1013AC00204B00221A601B4B5B681B4A526892B29E
:1013BC001146184601F0C1FF184B5B68184A526879
:1013CC0092B21146184601F0B8FF01E000BF00E0F0
:1013DC0000BF164B1B680133144A1360134B1A6879
:1013EC00134B1B689B009A4202DB104B00221A60C5
:1013FC00074B1B78032B04D10E4B1B6801330D4A92
:10140C00136000BF80BD00BFE80000203C0000203E
:10141C000800002008010020180100201001002005
:10142C0020010020F000002040000020EC000020F3
:10143C0038000020F400002080B487B000AFF860C2
:10144C00B9607A603B601E4AFB6813601D4ABB683A
:10145C0013601B4A7B6853601A4A3B685360184AF6
:10146C003B6A9360174A7B6A936000237B611DE0A3
:10147C0000233B610AE014497B699A003B691344E1
:10148C00012241F823203B6901333B613B69032B6B
:10149C00F1DD0E4A7B69002142F823100C4A7B696E
:1014AC00002142F823107B6901337B617B69022B9D
:1014BC00DEDD00BF00BF1C37BD4680BC704700BFDF
:1014CC002801002034010020400100207001002080
:1014DC007C01002080B584B000AF4B4B1B680133FE
:1014EC00494A13600023FB6085E00023BB600023A6
:1014FC007B6001233B6022E03B68013B4348FA6878
:10150C0091003A680A4450F822204048F968890052
:10151C000B4440F82320BB685B0043F00103BB6025
:10152C007B685A003B68013B3848F96889000B44DA
:10153C0050F8233013437B603B6801333B603B68BE
:10154C00032BD9DD324AFB6852F823203149FB6862
:10155C0051F823309BB21946104601F0BFFE0346EA
:10156C0019462A4AFB681B0113440C331960BB68EB
:10157C005B0043F00103BB607B685A002349FB68A6
:10158C001B010B440C331B6813437B601E4B1B6805
:10159C00032B2DDD7A68BB689A420FD11E4AFB687B
:1015AC0052F82330012B09D11C4AFB68002142F868
:1015BC002310194AFB68002142F823107B68002B8A
:1015CC0010D1154AFB6852F82330012B05D1134A70
:1015DC00FB68012142F8231004E00F4AFB6801214B
:1015EC0042F82310FB68022B02D1074B03221A602E
:1015FC00FB680133FB60FB68022B7FF776AF00BF03
:10160C0000BF1037BD4680BD88010020400100207E
:10161C002801002034010020700100207C010020F2
:10162C0080B483B000AF78607B68002B02DD7B68F0
:10163C00032B02DD4FF0FF3304E07B68013B044ACF
:10164C0052F8233018460C37BD4680BC704700BF9B
:10165C007001002080B483B000AF78607B68002BF1
:10166C0002DD7B68032B02DD4FF0FF3304E07B6867
:10167C00013B044A52F8233018460C37BD4680BC57
:10168C00704700BF7C01002090B5A5B000AF0123CE
:10169C007B6601233B66AB4B1B68002B00F01A8268
:1016AC00A94A07F1580392E8030018600433198023
:1016BC0002330A0C1A70A34B00221A60FEF73AFE92
:1016CC00A24B1B78052B00F2048201A252F823F0E6
:1016DC00CF1700089918000871190008F5160008B2
:1016EC00271A0008851A0008994A07F1500392E856
:1016FC00030083E803003B6E013BDBB29B01DAB2D3
:10170C007B6EDBB21344DBB2013BDBB25BB263F04A
:10171C007F035BB2DAB200234E218E48FEF74CFDFC
:10172C000023C7F88C300FE007F15002D7F88C304B
:10173C0013441A7801234E218648FEF73DFDD7F855
:10174C008C300133C7F88C30D7F88C30062BEBD9A2
:10175C00814A07F1480392E8030083E803000A2357
:10176C007B6601233B663B6E013BDBB29B01DAB22D
:10177C007B6EDBB21344DBB2013BDBB25BB263F0DA
:10178C007F035BB2DAB200234E217248FEF714FDE0
:10179C000023C7F888300FE007F14802D7F88830EB
:1017AC0013441A7801234E216A48FEF705FDD7F839
:1017BC0088300133C7F88830D7F88830062BEBD93E
:1017CC0088E1664A07F13C0307CA83E807003B6ED1
:1017DC00013BDBB29B01DAB27B6EDBB21344DBB2B2
:1017EC00013BDBB25BB263F07F035BB2DAB2002386
:1017FC004E215848FEF7E0FC0023C7F884300FE078
:10180C0007F13C02D7F8843013441A7801234E2197
:10181C005048FEF7D1FCD7F884300133C7F8843038
:10182C00D7F884300A2BEBD901237B6602233B6665
:10183C003B6E013BDBB29B01DAB27B6EDBB2134435
:10184C00DBB2013BDBB25BB263F07F035BB2DAB2BB
:10185C0000234E213F48FEF7AFFC0023C7F8803031
:10186C000FE007F15802D7F8803013441A7801239F
:10187C004E213848FEF7A0FCD7F880300133C7F86A
:10188C008030D7F88030052BEBD923E1344B07F1AE
:10189C002C040FCB07C423803B6E013BDBB29B01B6
:1018AC00DAB27B6EDBB21344DBB2013BDBB25BB270
:1018BC0063F07F035BB2DAB200234E212548FEF7BA
:1018CC007BFC0023FB670CE007F12C02FB6F13443D
:1018DC001A7801234E211F48FEF76EFCFB6F013373
:1018EC00FB67FB6F0C2BEFD901237B6602233B6656
:1018FC003B6E013BDBB29B01DAB27B6EDBB2134475
:10190C00DBB2013BDBB25BB263F07F035BB2DAB2FA
:10191C0000234E210F48FEF74FFC0023BB670CE061
:10192C0007F15802BB6F13441A7801234E21094862
:10193C00FEF742FCBB6F0133BB67BB6F052BEFD9C6
:10194C00C8E000BF04000020785100080800002007
:10195C00805100088C01002088510008905100082B
:10196C009C5100085D4B07F11C040FCB07C423806E
:10197C003B6E013BDBB29B01DAB27B6EDBB21344F4
:10198C00DBB2013BDBB25BB263F07F035BB2DAB27A
:10199C0000234E215248FEF70FFC00237B670CE01E
:1019AC0007F11C027B6F13441A7801234E214C481B
:1019BC00FEF702FC7B6F01337B677B6F0C2BEFD93F
:1019CC0001237B6602233B663B6E013BDBB29B0132
:1019DC00DAB27B6EDBB21344DBB2013BDBB25BB23F
:1019EC0063F07F035BB2DAB200234E213C48FEF772
:1019FC00E3FB00233B670CE007F158023B6F1344F9
:101A0C001A7801234E213648FEF7D6FB3B6F013383
:101A1C003B673B6F052BEFD95CE0324B07F10C04B5
:101A2C000FCB07C423803B6E013BDBB29B01DAB2C8
:101A3C007B6EDBB21344DBB2013BDBB25BB263F017
:101A4C007F035BB2DAB200234E212548FEF7B4FBCC
:101A5C000023FB660CE007F10C02FB6E13441A78B2
:101A6C0001234E211E48FEF7A7FBFB6E0133FB66DC
:101A7C00FB6E0C2BEFD92DE01B4A3B4607CA83E8C3
:101A8C0007003B6E013BDBB29B01DAB27B6EDBB233
:101A9C001344DBB2013BDBB25BB263F07F035BB29E
:101AAC00DAB200234E210E48FEF786FB0023BB66FC
:101ABC000BE03A46BB6E13441A7801234E210848BA
:101ACC00FEF77AFBBB6E0133BB66BB6E0A2BF0D9FB
:101ADC0000E000BF00BF9437BD4690BDAC5100087C
:101AEC008C010020BC510008CC51000880B584B09A
:101AFC0000AF194B1B78032B2AD10123BB600223A7
:101B0C007B607B68013BDBB29B01DAB2BB68DBB26A
:101B1C001344DBB2013BDBB25BB263F07F035BB21D
:101B2C00DAB200234E210D48FEF746FB0023FB6082
:101B3C000BE00B4AFB6813441A7801234E2107482B
:101B4C00FEF73AFBFB680133FB60FB68012BF0D915
:101B5C0000BF1037BD4680BD080000208C0100205E
:101B6C004400002080B584B000AF194B1B78032BC8
:101B7C002AD10A23BB6002237B607B68013BDBB26A
:101B8C009B01DAB2BB68DBB21344DBB2013BDBB2C4
:101B9C005BB263F07F035BB2DAB200234E210D48D7
:101BAC00FEF70AFB0023FB600BE00B4AFB681344B7
:101BBC001A7801234E210748FEF7FEFAFB68013321
:101BCC00FB60FB68012BF0D900BF1037BD4680BD10
:101BDC00080000208C0100204800002080B588B04F
:101BEC0000AFAE4A3B1D1268114619800233120C2D
:101BFC001A700823FB600223BB60A94B1B78032BD4
:101C0C0000F2468101A252F823F000BFFF1C00082D
:101C1C00891D0008131E0008291C0008A14B1B7805
:101C2C00002B1DD0A04B1B68A04A82FB0312921004
:101C3C00DB17D31ADBB23033DBB23B719A4B1A6829
:101C4C009A4B83FB02139910D317C91A0B469B00AE
:101C5C000B445B00D11ACBB23033DBB27B711CE08E
:101C6C00934B1B68914A82FB03129210DB17D31A19
:101C7C00DBB23033DBB23B718D4B1A688B4B83FB81
:101C8C0002139910D317C91A0B469B000B445B0027
:101C9C00D11ACBB23033DBB27B710423FB6002234D
:101CAC00BB60BB68013BDBB29B01DAB2FB68DBB209
:101CBC001344DBB2013BDBB25BB263F07F035BB27C
:101CCC00DAB200234E217B48FEF776FA0023FB6143
:101CDC000BE03A1DFB6913441A7801234E21754819
:101CEC00FEF76AFAFB690133FB61FB69012BF0D942
:101CFC00CFE0714B1B686D4A82FB03129210DB170D
:101D0C00D31ADBB23033DBB23B716B4B1A68674BC7
:101D1C0083FB02139910D317C91A0B469B000B4473
:101D2C005B00D11ACBB23033DBB27B71BB68013BA9
:101D3C00DBB29B01DAB2FB68DBB21344DBB2013BD2
:101D4C00DBB25BB263F07F035BB2DAB200234E21ED
:101D5C005848FEF731FA0023BB610BE03A1DBB6912
:101D6C0013441A7801234E215248FEF725FABB6919
:101D7C000133BB61BB69012BF0D98AE04E4B5B6828
:101D8C004A4A82FB03129210DB17D31ADBB23033B0
:101D9C00DBB23B71484B5A68444B83FB02139910DE
:101DAC00D317C91A0B469B000B445B00D11ACBB25C
:101DBC003033DBB27B71BB68013BDBB29B01DAB227
:101DCC00FB68DBB21344DBB2013BDBB25BB263F00A
:101DDC007F035BB2DAB200234E213648FEF7ECF9F2
:101DEC0000237B610BE03A1D7B6913441A780123B5
:101DFC004E213048FEF7E0F97B6901337B617B694A
:101E0C00012BF0D945E02C4B9B68284A82FB03122E
:101E1C009210DB17D31ADBB23033DBB23B71264B9B
:101E2C009A68224B83FB02139910D317C91A0B46DD
:101E3C009B000B445B00D11ACBB23033DBB27B710D
:101E4C00BB68013BDBB29B01DAB2FB68DBB213442B
:101E5C00DBB2013BDBB25BB263F07F035BB2DAB2A5
:101E6C0000234E211348FEF7A7F900233B610BE03A
:101E7C003A1D3B6913441A7801234E210D48FEF795
:101E8C009BF93B6901333B613B69012BF0D900E0C5
:101E9C0000BF00BF2037BD4680BD00BFD851000831
:101EAC0008000020E400002014000020676666662D
:101EBC00300000208C0100201800002080B584B078
:101ECC0000AF3D4B1B78032B71D13C4A3B4612684B
:101EDC00114619800233120C1A70394B1B78002BE7
:101EEC001DD1384B1B68384A82FB03129210DB174A
:101EFC00D31ADBB23033DBB23B70324B1A68324B45
:101F0C0083FB02139910D317C91A0B469B000B4481
:101F1C005B00D11ACBB23033DBB27B701CE02B4BA5
:101F2C001B68294A82FB03129210DB17D31ADBB20F
:101F3C003033DBB23B70254B1A68234B83FB021307
:101F4C009910D317C91A0B469B000B445B00D11A8E
:101F5C00CBB23033DBB27B700D23BB6002237B60D2
:101F6C007B68013BDBB29B01DAB2BB68DBB213448A
:101F7C00DBB2013BDBB25BB263F07F035BB2DAB284
:101F8C0000234E211248FEF717F90023FB600BE0EB
:101F9C003A46FB6813441A7801234E210C48FEF78D
:101FAC000BF9FB680133FB60FB68012BF0D900BF18
:101FBC001037BD4680BD00BF08000020D851000876
:101FCC00E4000020140000206766666630000020E4
:101FDC008C01002080B500AF0020FEF7F3F900BFA4
:101FEC0080BD80B500AF0020FEF7B8F900BF80BD02
:101FFC0080B400AF144B1B78002B10D0012B1DD1DB
:10200C00114B5B78032B03D1104B47221A7002E063
:10201C000E4B41221A700E4B52221A700FE00A4BD3
:10202C005B78032B03D10A4B47221A7002E0084B52
:10203C0041221A70054B52221A7000E000BF00BFFB
:10204C00BD4680BC704700BFE40000204400002067
:10205C004800002080B58AB00AAF00F027FC00F0E1
:10206C0095F800F0CBF900F09FF900F003F900F0BF
:10207C004DF900F0D1F84FF400730993324B0893EB
:10208C004FF480730793304B0693402305932F4BEB
:10209C000493802303932E4B0293202301932B4B09
:1020AC0000934FF48063294A10212848FEF7FCFA6C
:1020BC00284802F079FA2848FEF702F9FEF7B6F93B
:1020CC00002200212548FEF7BDF9002203212448F7
:1020DC00FEF7B8F9002206212248FEF7B3F940F2C8
:1020EC00611200212048FEF7ADF9F32200211F48B0
:1020FC00FEF7A8F940F24D1200211D48FEF7A2F997
:10210C004FF4967200211B48FEF79CF94FF4C872ED
:10211C0000211948FEF796F9022200211748FEF714
:10212C0091F9012200211648FEF78CF901220021B9
:10213C001448FEF787F9012200211348FEF782F9B3
:10214C00FEF778FAFCE700BF00080140000C0140E4
:10215C0000100140280200208C01002041030008DF
:10216C00E11F0008EF1F000895160008E91B000886
:10217C00C91E0008F91A0008711B0008FD1F000891
:10218C00E11400085D070008BD12000880B590B08E
:10219C0000AF07F1180328220021184602F04EFF69
:1021AC003B1D00221A605A609A60DA601A610123A2
:1021BC00BB614FF48033FB6100233B620123BB62A4
:1021CC0002237B634FF48033BB634FF4E013FB6358
:1021DC0007F11803184601F087FD0346002B01D0C8
:1021EC0000F0B2F90F237B600223BB600023FB607D
:1021FC004FF480633B6100237B613B1D0221184639
:10220C0001F0F4FF0346002B01D000F09DF900BF54
:10221C004037BD4680BD000080B500AF124B134A5D
:10222C001A60114B124A5A600F4B00229A600E4BE7
:10223C000022DA600C4B4FF480421A610A4B0022E8
:10224C005A61094B00229A61074B0022DA61064B56
:10225C0000221A62044801F0ABF80346002B01D0AF
:10226C0000F072F900BF80BD8C01002000540040CA
:10227C00A086010080B586B000AF07F108030022EC
:10228C001A605A609A60DA603B4600221A605A6003
:10229C001D4B4FF080421A601B4B41F63F725A6047
:1022AC00194B00229A60184B0922DA60164B002257
:1022BC001A61154B00229A61134802F025F9034666
:1022CC00002B01D000F040F94FF48053BB6007F1B4
:1022DC00080319460C4802F0C1FA0346002B01D042
:1022EC0000F032F900233B6000237B603B4619462B
:1022FC00054802F097FC0346002B01D000F024F9AE
:10230C0000BF1837BD4680BDE001002080B586B007
:10231C0000AF07F1080300221A605A609A60DA6075
:10232C003B4600221A605A601D4B1E4A1A601C4B19
:10233C0045F6BF525A601A4B00229A60184B022283
:10234C00DA60174B00221A61154B00229A6114486F
:10235C0002F0DAF80346002B01D000F0F5F84FF448
:10236C008053BB6007F1080319460D4802F076FA5A
:10237C000346002B01D000F0E7F800233B6000235C
:10238C007B603B461946064802F04CFC0346002B8A
:10239C0001D000F0D9F800BF1837BD4680BD00BF92
:1023AC00280200200004004080B500AF114B124AF7
:1023BC001A60104B4FF4E1325A600E4B00229A60B7
:1023CC000C4B0022DA600B4B00221A61094B0C22D9
:1023DC005A61084B00229A61064B0022DA610548CB
:1023EC0002F090FC0346002B01D000F0ADF800BFCA
:1023FC0080BD00BF700200200044004080B588B052
:10240C0000AF07F1100300221A605A609A60DA607C
:10241C00484B9B69474A43F010039361454B9B69BA
:10242C0003F01003FB60FB68424B9B69414A43F08D
:10243C00200393613F4B9B6903F02003BB60BB6897
:10244C003C4B9B693B4A43F004039361394B9B69BA
:10245C0003F004037B607B68364B9B69354A43F081
:10246C0008039361334B9B6903F008033B603B68A3
:10247C0000224FF44871304800F047FF00228021C1
:10248C002E4800F042FF002240212D4800F03DFF75
:10249C004FF400533B612B4B7B610023BB6107F175
:1024AC0010031946254800F095FD4FF448733B6125
:1024BC0001237B610023BB610223FB6107F1100345
:1024CC0019461D4800F086FD4FF486633B610023DE
:1024DC007B610023BB6107F110031946184800F01B
:1024EC0079FD80233B6101237B610023BB610223C7
:1024FC00FB6107F110031946104800F06BFD4023F7
:10250C003B6101237B610023BB610223FB6107F16B
:10251C00100319460A4800F05DFD00220021282016
:10252C0000F021FB282000F03AFB00BF2037BD460D
:10253C0080BD00BF001002400008014000100140A7
:10254C00000C01400000111080B400AF72B600BF47
:10255C0000BFFDE780B485B000AF154B9B69144AF2
:10256C0043F001039361124B9B6903F00103BB60C1
:10257C00BB680F4BDB690E4A43F08053D3610C4BA5
:10258C00DB6903F080537B607B680A4B5B68FB6004
:10259C00FB6823F0E063FB60FB6843F00073FB60B7
:1025AC00044AFB68536000BF1437BD4680BC7047BB
:1025BC00001002400000014080B58AB000AF786086
:1025CC0007F1140300221A605A609A60DA607B6883
:1025DC001B681D4A934232D11C4B9B691B4A43F02A
:1025EC0008039361194B9B6903F008033B613B693A
:1025FC004FF440737B611223BB6103233B6207F1F1
:10260C0014031946124800F0E5FC124B5B687B6220
:10261C007B6A43F0E0637B627B6A43F002037B627C
:10262C000C4A7B6A5360094BDB69084A43F400137C
:10263C00D361064BDB6903F40013FB60FB6800BF3E
:10264C002837BD4680BD00BF00540040001002403A
:10265C00000C01400000014080B584B000AF7860F0
:10266C007B681B68B3F1804F14D1194BDB69184A96
:10267C0043F00103D361164BDB6903F00103FB60EC
:10268C00FB68002200211C2000F06DFA1C2000F0D9
:10269C0086FA18E07B681B680E4A934213D10C4BE8
:1026AC00DB690B4A43F00203D361094BDB6903F08E
:1026BC000203BB60BB68002200211D2000F053FA0E
:1026CC001D2000F06CFA00BF1037BD4680BD00BF66
:1026DC00001002400004004080B588B000AF786064
:1026EC0007F1100300221A605A609A60DA607B6866
:1026FC001B68154A934223D1144BDB69134A43F4EC
:10270C000033D361114BDB6903F40033FB60FB68CE
:10271C000E4B9B690D4A43F0040393610B4B9B6971
:10272C0003F00403BB60BB680C233B6102237B6199
:10273C000223FB6107F110031946054800F04AFC1F
:10274C0000BF2037BD4680BD004400400010024051
:10275C000008014080B400AF00BFFDE780B400AFBB
:10276C0000BFBD4680BC704780B400AF00BFFDE722
:10277C0080B400AF00BFFDE780B400AF00BFFDE741
:10278C0080B400AF00BFBD4680BC704780B400AFC2
:10279C0000BFBD4680BC704780B400AF00BFBD46D3
:1027AC0080BC704780B500AF00F0C6F800BF80BD9C
:1027BC0080B500AF024801F049FF00BF80BD00BFEB
:1027CC00E001002080B500AF024801F03FFF00BFE0
:1027DC0080BD00BF2802002080B500AF4FF4005030
:1027EC0000F0C4FD00BF80BD80B586B000AF78603E
:1027FC00144A154BD31A7B617B693B61134B1B68E5
:10280C00002B02D1114B124A1A60104B1A687B68CC
:10281C0013443A699A4207D202F028FC03460C2270
:10282C001A604FF0FF3309E0084B1B68FB60074B45
:10283C001A687B681344054A1360FB6818461837FE
:10284C00BD4680BD0050002000040000B8020020EE
:10285C002804002080B400AF00BFBD4680BC704788
:10286C00FFF7F8FF0B480C490C4A002302E0D45840
:10287C00C4500433C4188C42F9D3094A094C0023C0
:10288C0001E013600432A242FBD302F0F5FBFFF728
:10289C00E1FB704700000020A80000201052000847
:1028AC00A800002028040020FEE7000080B500AF3F
:1028BC00084B1B68074A43F010031360032000F019
:1028CC0047F9002000F008F8FFF744FE00231846F3
:1028DC0080BD00BF0020024080B582B000AF7860A0
:1028EC00124B1A68124B1B7819464FF47A73B3FBD0
:1028FC00F1F3B2FBF3F3184600F05FF90346002B3B
:10290C0001D001230EE07B680F2B0AD800227968D6
:10291C004FF0FF3000F027F9064A7B681360002364
:10292C0000E0012318460837BD4680BD4C0000204E
:10293C00540000205000002080B400AF054B1B78E1
:10294C001A46054B1B681344034A136000BFBD466F
:10295C0080BC704754000020BC02002080B400AF43
:10296C00024B1B681846BD4680BC7047BC02002059
:10297C0080B584B000AF7860FFF7F0FFB8607B687B
:10298C00FB60FB68B3F1FF3F05D00A4B1B781A467E
:10299C00FB681344FB6000BFFFF7E0FF0246BB6817
:1029AC00D31AFA689A42F7D800BF00BF1037BD4659
:1029BC0080BD00BF5400002080B485B000AF7860AB
:1029CC007B6803F00703FB600C4BDB68BB60BA68E9
:1029DC004FF6FF031340BB60FB681A02BB6813433E
:1029EC0043F0BF6343F40033BB60044ABB68D3605D
:1029FC0000BF1437BD4680BC704700BF00ED00E03F
:102A0C0080B400AF044BDB681B0A03F007031846C5
:102A1C00BD4680BC704700BF00ED00E080B483B0C1
:102A2C0000AF0346FB7197F90730002B0BDBFB79EA
:102A3C0003F01F02064997F907305B09012000FAE1
:102A4C0002F241F8232000BF0C37BD4680BC704712
:102A5C0000E100E080B483B000AF03463960FB7145
:102A6C0097F90730002B0ADB3B68DAB20C4997F96F
:102A7C0007301201D2B20B4483F800230AE03B6802
:102A8C00DAB20849FB7903F00F03043B1201D2B20E
:102A9C000B441A7600BF0C37BD4680BC704700BF94
:102AAC0000E100E000ED00E080B489B000AFF86018
:102ABC00B9607A60FB6803F00703FB61FB69C3F143
:102ACC000703042B28BF0423BB61FB690433062BCB
:102ADC0002D9FB69033B00E000237B614FF0FF321E
:102AEC00BB6902FA03F3DA43BB681A407B699A406C
:102AFC004FF0FF317B6901FA03F3D9437B680B403C
:102B0C00134318462437BD4680BC704780B582B04D
:102B1C0000AF78607B68013BB3F1807F01D3012368
:102B2C000FE00A4A7B68013B53600F214FF0FF30E6
:102B3C00FFF790FF054B00229A60044B07221A60A6
:102B4C00002318460837BD4680BD00BF10E000E0EA
:102B5C0080B582B000AF78607868FFF72DFF00BFBA
:102B6C000837BD4680BD80B586B000AF0346B9605E
:102B7C007A60FB7300237B61FFF742FF78617A6810
:102B8C00B9687869FFF790FF024697F90F30114644
:102B9C001846FFF75FFF00BF1837BD4680BD80B5F4
:102BAC0082B000AF0346FB7197F907301846FFF768
:102BBC0035FF00BF0837BD4680BD80B582B000AF81
:102BCC0078607868FFF7A2FF034618460837BD46C1
:102BDC0080BD0000F0B587B000AFF860B960C7E900
:102BEC0000230123FB750023BB7500237B752F4B42
:102BFC001B7E012B01D1022354E02C4B01221A76AF
:102C0C004CF2503000F0A8F80346FB75FB7D002B0E
:102C1C0044D1FB68012B02D101237B7507E0FB68D3
:102C2C00022B02D102237B7501E004237B75002368
:102C3C00BB752DE0BB7D5A00BB6802EB030CBB7D62
:102C4C001901D7E90023C1F12006A1F1200022FAD5
:102C5C0001F403FA06F6344323FA00F0044323FA92
:102C6C0001F5A3B21946604600F05AF84CF2503008
:102C7C0000F072F80346FB750D4B1B690C4A23F0F0
:102C8C0001031361FB7D002B07D1BB7D0133BB75A9
:102C9C00BA7D7B7D9A42CDD300E000BF034B00226E
:102CAC001A76FB7D18461C37BD46F0BDC0020020CD
:102CBC000020024080B483B000AF0023FB710D4BA9
:102CCC001B6903F08003002B0DD00A4B0A4A5A6093
:102CDC00084B0A4A5A60074B1B6903F08003002B10
:102CEC0001D00123FB71FB7918460C37BD4680BC23
:102CFC00704700BF0020024023016745AB89EFCD30
:102D0C0080B400AF054B1B69044A43F08003136188
:102D1C0000231846BD4680BC704700BF002002400F
:102D2C0080B483B000AF78600B467B80084B0022E8
:102D3C00DA61084B1B69074A43F0010313617B6896
:102D4C007A881A8000BF0C37BD4680BC704700BF24
:102D5C00C00200200020024080B584B000AF786033
:102D6C00FFF7FCFDF86010E07B68B3F1FF3F0CD07F
:102D7C007B68002B07D0FFF7F1FD0246FB68D31AE6
:102D8C007A689A4201D2032325E0154BDB6803F0E5
:102D9C000103002BE8D1124BDB6803F02003002B5E
:102DAC0002D00F4B2022DA600D4BDB6803F01003CE
:102DBC00002B0BD10A4BDB6903F00103002B05D16F
:102DCC00074BDB6803F00403002B03D000F00AF878
:102DDC00012300E0002318461037BD4680BD00BF1C
:102DEC000020024080B483B000AF00237B60234BF3
:102DFC00DB6803F01003002B09D0214BDB6943F097
:102E0C0002031F4AD3617B6843F010037B601B4BAA
:102E1C00DB6803F00403002B09D0194BDB6943F08A
:102E2C000103174AD3617B6843F004037B60134BA7
:102E3C00DB6903F00103002B0BD0114BDB6943F072
:102E4C0004030F4AD3610D4BDB690C4A23F00103D9
:102E5C00D3617B6840F20112934206D1074BDB69C8
:102E6C00064A23F00103D36102E0044A7B68D36075
:102E7C0000BF0C37BD4680BC704700BF002002402D
:102E8C00C002002080B584B000AF786039600123A7
:102E9C00FB730023BB602F4B1B7E012B01D1022344
:102EAC0053E02C4B01221A767B681B68022B16D13F
:102EBC004CF25030FFF750FF0346002B41D101205C
:102ECC0000F04CF84CF25030FFF746FF0346FB7312
:102EDC00214B1B69204A23F00403136131E04CF2AF
:102EEC005030FFF739FF0346002B2AD13B684FF0D7
:102EFC00FF321A607B689B68BB6019E0B86800F011
:102F0C0049F84CF25030FFF727FF0346FB73124B86
:102F1C001B69114A23F002031361FB7B002B03D0C6
:102F2C003B68BA681A600CE0BB6803F58063BB6051
:102F3C007B68DB689A027B689B681344BA689A4288
:102F4C00DCD3044B00221A76FB7B18461037BD46A7
:102F5C0080BD00BFC00200200020024080B483B0BE
:102F6C0000AF7860094B0022DA61094B1B69084AF3
:102F7C0043F004031361064B1B69054A43F04003FD
:102F8C00136100BF0C37BD4680BC7047C0020020E7
:102F9C000020024080B483B000AF78600B4B00225D
:102FAC00DA610B4B1B690A4A43F002031361084AAE
:102FBC007B685361064B1B69054A43F04003136160
:102FCC0000BF0C37BD4680BC704700BFC00200205C
:102FDC000020024080B48BB000AF786039600023D1
:102FEC007B6200233B6269E101227B6A02FA03F3F4
:102FFC00FB613B681B68FA691340BB61BA69FB69EA
:10300C009A4240F058813B685B689A4A93425ED082
:10301C00984A934275D8984A934258D0964A93420C
:10302C006FD8964A934252D0944A934269D8944AA4
:10303C0093424CD0924A934263D8924A934246D0E0
:10304C00904A93425DD8122B2AD8122B59D801A240
:10305C0052F823F0DB300008B5300008C730000808
:10306C00093100080F3100080F3100080F3100083A
:10307C000F3100080F3100080F3100080F31000824
:10308C000F3100080F3100080F3100080F31000814
:10309C000F3100080F310008BD300008D130000896
:1030AC00794A934213D02CE03B68DB683B6229E001
:1030BC003B68DB6804333B6224E03B68DB68083325
:1030CC003B621FE03B68DB680C333B621AE03B68F9
:1030DC009B68002B02D104233B6213E03B689B6886
:1030EC00012B05D108233B627B68FA691A6109E060
:1030FC0008233B627B68FA695A6103E000233B6258
:10310C0000E000BFBB69FF2B01D87B6801E07B6846
:10311C0004337B61BB69FF2B02D87B6A9B0002E006
:10312C007B6A083B9B003B617B691A680F213B69FA
:10313C0001FA03F3DB431A40396A3B6901FA03F3E2
:10314C001A437B691A603B685B6803F08053002B61
:10315C0000F0B1804D4B9B694C4A43F001039361E5
:10316C004A4B9B6903F00103BB60BB68484A7B6A0E
:10317C009B08023352F82330FB607B6A03F0030395
:10318C009B000F2202FA03F3DB43FA681340FB6047
:10319C007B68404A934213D07B683F4A93420DD0E0
:1031AC007B683E4A934207D07B683D4A934201D1EB
:1031BC00032306E0042304E0022302E0012300E0E1
:1031CC0000237A6A02F0030292009340FA681343D8
:1031DC00FB602F497B6A9B080233FA6841F8232075
:1031EC003B685B6803F48013002B06D02D4B9A6868
:1031FC002C49BB6913438B6006E02A4B9A68BB6968
:10320C00DB43284913408B603B685B6803F4001375
:10321C00002B06D0234BDA682249BB691343CB60E1
:10322C0006E0204BDA68BB69DB431E491340CB60D8
:10323C003B685B6803F40033002B06D0194B5A68CB
:10324C001849BB6913434B6006E0164B5A68BB69BF
:10325C00DB43144913404B603B685B6803F48033D9
:10326C00002B21D00F4B1A680E49BB6913430B601E
:10327C0021E000BF000032100000311000002210CD
:10328C00000021100000121000001110001002406C
:10329C000000014000080140000C014000100140FA
:1032AC0000140140000401400B4B1A68BB69DB435E
:1032BC00094913400B607B6A01337B623B681A68D7
:1032CC007B6A22FA03F3002B7FF48EAE00BF00BFA3
:1032DC002C37BD4680BC70470004014080B485B0DB
:1032EC0000AF78600B467B807B689A687B881340C4
:1032FC00002B02D00123FB7301E00023FB73FB7B4B
:10330C0018461437BD4680BC704780B483B000AFFC
:10331C0078600B467B8013467B707B78002B03D048
:10332C007A887B681A6103E07B881A047B681A61CF
:10333C0000BF0C37BD4680BC704780B485B000AF71
:10334C0078600B467B807B68DB68FB607A88FB6867
:10335C0013401A04FB68D9437B880B401A437B68E3
:10336C001A6100BF1437BD4680BC704780B582B06F
:10337C0000AF0346FB80084B5A69FB881340002BB7
:10338C0006D0054AFB885361FB88184600F006F806
:10339C0000BF0837BD4680BD0004014080B483B037
:1033AC0000AF0346FB8000BF0C37BD4680BC7047A6
:1033BC0080B584B000AF78607B68002B01D101230D
:1033CC002BE17B6893F83D30DBB2002B06D17B6898
:1033DC00002283F83C207868FFF7EEF87B68242203
:1033EC0083F83D207B681B681A687B681B6822F099
:1033FC0001021A607B681B681A687B681B6842F4C0
:10340C0000421A607B681B681A687B681B6822F490
:10341C0000421A6001F032F8F8607B685B68814A00
:10342C00934207D8FB68804A934294BF0123002340
:10343C00DBB206E0FB687D4A934294BF0123002374
:10344C00DBB2002B01D00123E7E0FB68784AA2FB3A
:10345C0003239B0CBB607B681B685B6823F03F01FC
:10346C007B681B68BA680A435A607B681B681B6AD6
:10347C0023F03F017B685B686A4A934202D8BB68C1
:10348C00013309E0BB684FF4967202FB03F3694AFF
:10349C00A2FB03239B0901337A6812680B43136266
:1034AC007B681B68DB6923F44F4222F0FF027B68C8
:1034BC005B685C498B4219D8FB68591E7B685B685A
:1034CC005B00B1FBF3F3591C40F6FC730B40002B73
:1034DC000AD0FB68591E7B685B685B00B1FBF3F399
:1034EC000133C3F30B0351E004234FE07B689B686B
:1034FC00002B11D1FB68581E7B6859680B465B008A
:10350C000B44B0FBF3F30133C3F30B03002B0CBFE1
:10351C0001230023DBB212E0FB68581E7B6859685C
:10352C000B469B000B4499000B44B0FBF3F30133A7
:10353C00C3F30B03002B0CBF01230023DBB2002BC6
:10354C0001D0012322E07B689B68002B0ED1FB6825
:10355C00581E7B6859680B465B000B44B0FBF3F3B9
:10356C000133C3F30B0343F400430FE0FB68581E15
:10357C007B6859680B469B000B4499000B44B0FBCD
:10358C00F3F30133C3F30B0343F440437968096845
:10359C001343CB617B681B681B6823F0C0017B68FD
:1035AC00DA697B681B6A1A437B681B680A431A60DA
:1035BC007B681B689B6823F4034323F0FF037A6842
:1035CC0011697A68D26811437A6812680B43936068
:1035DC007B681B68DB6823F0FF017B685A697B689A
:1035EC009B691A437B681B680A43DA607B681B681B
:1035FC001A687B681B6842F001021A607B68002223
:10360C001A647B68202283F83D207B6800221A63B1
:10361C007B68002283F83E20002318461037BD46F5
:10362C0080BD00BFA08601007F841E00FF083D0006
:10363C0083DE1B43D34D621080B588B002AFF860B7
:10364C007A601A460B467B8113463B81FFF786F95D
:10365C007861FB6893F83D30DBB2202B40F0E080C2
:10366C007B690093192301227049F86800F064F912
:10367C000346002B01D00223D3E0FB6893F83C30C7
:10368C00012B01D10223CCE0FB68012283F83C2002
:10369C00FB681B681B6803F00103012B07D0FB6858
:1036AC001B681A68FB681B6842F001021A60FB6811
:1036BC001B681A68FB681B6822F400621A60FB68BE
:1036CC00212283F83D20FB68102283F83E20FB6802
:1036DC0000221A64FB687A685A62FB683A895A8538
:1036EC00FB685B8D9AB2FB681A85FB68504ADA62FC
:1036FC0079897B693A6AF86800F09CF80346002BDC
:10370C0001D001238DE000233B61FB681B685B69E2
:10371C003B61FB681B689B693B613B6966E07A69AE
:10372C00396AF86800F022FA0346002B0DD0FB68CA
:10373C001B6C042B07D1FB681B681A68FB681B68A1
:10374C0042F400721A6001236BE0FB685B6A1A7822
:10375C00FB681B681A61FB685B6A5A1CFB685A623F
:10376C00FB685B8D9BB2013B9AB2FB685A85FB6888
:10377C001B8D013B9AB2FB681A85FB681B685B6961
:10378C0003F00403042B1BD1FB681B8D002B17D0FB
:10379C00FB685B6A1A78FB681B681A61FB685B6ADA
:1037AC005A1CFB685A62FB685B8D9BB2013B9AB258
:1037BC00FB685A85FB681B8D013B9AB2FB681A8526
:1037CC007A69396AF86800F019FA0346002B0DD0B3
:1037DC00FB681B6C042B07D1FB681B681A68FB6821
:1037EC001B6842F400721A6001231AE0FB681B8DFF
:1037FC00002B94D1FB681B681A68FB681B6842F4A9
:10380C0000721A60FB68202283F83D20FB680022BE
:10381C0083F83E20FB68002283F83C20002300E064
:10382C00022318461837BD4680BD00BF02001000A9
:10383C000000FFFF80B588B002AFF8607A603B6093
:10384C000B467B81FB68DB6A7B617B69082B06D0AE
:10385C007B69012B03D07B6913F5803F08D1FB6892
:10386C001B681A68FB681B6842F480721A600BE0D4
:10387C00FB681B6B122B07D1FB681B681A68FB6873
:10388C001B6842F480721A603B6800937B680022CC
:10389C004FF00111F86800F04FF80346002B0DD0E3
:1038AC00FB681B681B6803F48073B3F5807F03D13E
:1038BC00FB684FF400721A64032335E0FB681B6944
:1038CC00B3F5804F08D17B89DBB21A46FB681B68C5
:1038DC0002F0FE021A611BE07B89DB11DBB203F004
:1038EC000603DBB263F00F03DAB2FB681B681A61E4
:1038FC003B687A680E49F86800F098F80346002B8C
:10390C0001D0012310E07B89DAB2FB681B681A61D5
:10391C003B687A680749F86800F088F80346002B82
:10392C0001D0012300E0002318461837BD4680BDA6
:10393C00080001000200010080B584B000AFF860FF
:10394C00B9603B601346FB7148E03B68B3F1FF3F45
:10395C0044D0FFF703F80246BB69D31A3A689A427F
:10396C0002D33B68002B39D1BB681B0CDBB2012B9B
:10397C000DD1FB681B685B69DA43BB6813409BB2D3
:10398C00002B0CBF01230023DBB21A460CE0FB68B2
:10399C001B689B69DA43BB6813409BB2002B0CBFBE
:1039AC0001230023DBB21A46FB799A4216D1FB683D
:1039BC0000221A63FB68202283F83D20FB6800225A
:1039CC0083F83E20FB681B6C43F02002FB681A64F2
:1039DC00FB68002283F83C20012323E0BB681B0C0E
:1039EC00DBB2012B0DD1FB681B685B69DA43BB684A
:1039FC0013409BB2002B0CBF01230023DBB21A46F1
:103A0C000CE0FB681B689B69DA43BB6813409BB2F4
:103A1C00002B0CBF01230023DBB21A46FB799A4220
:103A2C0093D0002318461037BD4680BD80B584B0B6
:103A3C0000AFF860B9607A603B6071E0FB681B68AE
:103A4C005B6903F48063B3F5806F23D1FB681B685B
:103A5C001A68FB681B6842F400721A60FB681B68EA
:103A6C006FF480625A61FB6800221A63FB682022A3
:103A7C0083F83D20FB68002283F83E20FB681B6C1A
:103A8C0043F00402FB681A64FB68002283F83C20B4
:103A9C00012367E07B68B3F1FF3F41D0FEF75EFF87
:103AAC0002463B68D31A7A689A4202D37B68002B91
:103ABC0036D1BB681B0CDBB2012B0CD1FB681B682D
:103ACC005B69DA43BB6813409BB2002B14BF012324
:103ADC000023DBB20BE0FB681B689B69DA43BB6815
:103AEC0013409BB2002B14BF01230023DBB2002B2D
:103AFC0016D0FB6800221A63FB68202283F83D2055
:103B0C00FB68002283F83E20FB681B6C43F020020C
:103B1C00FB681A64FB68002283F83C20012321E037
:103B2C00BB681B0CDBB2012B0CD1FB681B685B69FF
:103B3C00DA43BB6813409BB2002B14BF0123002354
:103B4C00DBB20BE0FB681B689B69DA43BB68134074
:103B5C009BB2002B14BF01230023DBB2002B7FF49C
:103B6C006DAF002318461037BD4680BD80B584B0BC
:103B7C0000AFF860B9607A6034E0F86800F086F85D
:103B8C000346002B01D0012334E0BB68B3F1FF3FA7
:103B9C0028D0FEF7E3FE02467B68D31ABA689A4235
:103BAC0002D3BB68002B1DD1FB681B685B6903F05B
:103BBC008003802B16D0FB6800221A63FB6820223E
:103BCC0083F83D20FB68002283F83E20FB681B6CC9
:103BDC0043F02002FB681A64FB68002283F83C2047
:103BEC00012307E0FB681B685B6903F08003802BF3
:103BFC00C3D1002318461037BD4680BD80B584B0B4
:103C0C0000AFF860B9607A6034E0F86800F03EF814
:103C1C000346002B01D0012334E0BB68B3F1FF3F16
:103C2C0028D0FEF79BFE02467B68D31ABA689A42EC
:103C3C0002D3BB68002B1DD1FB681B685B6903F0CA
:103C4C000403042B16D0FB6800221A63FB682022A5
:103C5C0083F83D20FB68002283F83E20FB681B6C38
:103C6C0043F02002FB681A64FB68002283F83C20B6
:103C7C00012307E0FB681B685B6903F00403042B5A
:103C8C00C3D1002318461037BD4680BD80B483B025
:103C9C0000AF78607B681B685B6903F48063B3F5E5
:103CAC00806F1BD17B681B686FF480625A617B68E4
:103CBC0000221A637B68202283F83D207B68002257
:103CCC0083F83E207B681B6C43F004027B681A640B
:103CDC007B68002283F83C20012300E00023184677
:103CEC000C37BD4680BC704780B586B000AF78609D
:103CFC007B68002B01D1012372E27B681B6803F007
:103D0C000103002B00F08780924B5B6803F00C03DF
:103D1C00042B0CD08F4B5B6803F00C03082B12D1D7
:103D2C008C4B5B6803F48033B3F5803F0BD1894B2C
:103D3C001B6803F40033002B6CD07B685B68002B92
:103D4C0068D101234CE27B685B68B3F5803F06D1F8
:103D5C00804B1B687F4A43F4803313602EE07B68F2
:103D6C005B68002B0CD17B4B1B687A4A23F48033A5
:103D7C001360784B1B68774A23F4802313601DE093
:103D8C007B685B68B3F5A02F0CD1724B1B68714A32
:103D9C0043F4802313606F4B1B686E4A43F48033EB
:103DAC0013600BE06B4B1B686A4A23F4803313607F
:103DBC00684B1B68674A23F4802313607B685B683D
:103DCC00002B13D0FEF7CAFD386108E0FEF7C6FDE4
:103DDC0002463B69D31A642B01D9032300E25D4BE5
:103DEC001B6803F40033002BF0D014E0FEF7B6FD93
:103DFC00386108E0FEF7B2FD02463B69D31A642B2A
:103E0C0001D90323ECE1534B1B6803F40033002B63
:103E1C00F0D100E000BF7B681B6803F00203002BAD
:103E2C0063D04C4B5B6803F00C03002B0BD0494B5D
:103E3C005B6803F00C03082B1CD1464B5B6803F446
:103E4C008033002B16D1434B1B6803F00203002B6D
:103E5C0005D07B681B69012B01D00123C0E13D4BD0
:103E6C001B6823F0F8027B685B69DB00394913435C
:103E7C000B603AE07B681B69002B20D0364B01228B
:103E8C001A60FEF76BFD386108E0FEF767FD02462D
:103E9C003B69D31A022B01D90323A1E12D4B1B68DB
:103EAC0003F00203002BF0D02A4B1B6823F0F8021E
:103EBC007B685B69DB00274913430B6015E0264BDD
:103ECC0000221A60FEF74AFD386108E0FEF746FD55
:103EDC0002463B69D31A022B01D9032380E11D4B07
:103EEC001B6803F00203002BF0D17B681B6803F006
:103EFC000803002B3AD07B689B69002B19D0174B19
:103F0C0001221A60FEF72AFD386108E0FEF726FD53
:103F1C0002463B69D31A022B01D9032360E10D4BF6
:103F2C005B6A03F00203002BF0D0012000F0CEFA04
:103F3C001CE00A4B00221A60FEF710FD38610FE0FE
:103F4C00FEF70CFD02463B69D31A022B08D903235A
:103F5C0046E100BF00100240000042428004424291
:103F6C00924B5B6A03F00203002BE9D17B681B6860
:103F7C0003F00403002B00F0A6800023FB758B4B91
:103F8C00DB6903F08053002B0DD1884BDB69874A2A
:103F9C0043F08053D361854BDB6903F08053BB60E6
:103FAC00BB680123FB75824B1B6803F48073002BE9
:103FBC0018D17F4B1B687E4A43F480731360FEF765
:103FCC00CDFC386108E0FEF7C9FC02463B69D31A08
:103FDC00642B01D9032303E1754B1B6803F4807335
:103FEC00002BF0D07B68DB68012B06D16F4B1B6A72
:103FFC006E4A43F0010313622DE07B68DB68002BF3
:10400C000CD16A4B1B6A694A23F001031362674B9C
:10401C001B6A664A23F0040313621CE07B68DB68AE
:10402C00052B0CD1614B1B6A604A43F004031362ED
:10403C005E4B1B6A5D4A43F0010313620BE05B4B62
:10404C001B6A5A4A23F001031362584B1B6A574AE6
:10405C0023F0040313627B68DB68002B15D0FEF79A
:10406C007DFC38610AE0FEF779FC02463B69D31A05
:10407C0041F28832934201D90323B1E04B4B1B6AC6
:10408C0003F00203002BEED014E0FEF767FC38615E
:10409C000AE0FEF763FC02463B69D31A41F2883210
:1040AC00934201D903239BE0404B1B6A03F00203AC
:1040BC00002BEED1FB7D012B05D13C4BDB693B4A40
:1040CC0023F08053D3617B68DB69002B00F0878081
:1040DC00364B5B6803F00C03082B61D07B68DB6903
:1040EC00022B46D1334B00221A60FEF737FC3861A5
:1040FC0008E0FEF733FC02463B69D31A022B01D9C8
:10410C0003236DE0294B1B6803F00073002BF0D1E7
:10411C007B681B6AB3F5803F08D1244B5B6823F4A2
:10412C0000327B689B68214913434B601F4B5B68D3
:10413C0023F474127B68196A7B685B6A0B431B4916
:10414C0013434B601B4B01221A60FEF707FC3861CE
:10415C0008E0FEF703FC02463B69D31A022B01D997
:10416C0003233DE0114B1B6803F00073002BF0D0D0
:10417C0035E0104B00221A60FEF7F0FB386108E0C6
:10418C00FEF7ECFB02463B69D31A022B01D9032341
:10419C0026E0064B1B6803F00073002BF0D11EE0E9
:1041AC007B68DB69012B07D1012319E00010024069
:1041BC0000700040600042420B4B5B68FB60FB6888
:1041CC0003F480327B681B6A9A4206D1FB6803F4C5
:1041DC0070127B685B6A9A4201D0012300E00023D5
:1041EC0018461837BD4680BD0010024080B584B01B
:1041FC0000AF786039607B68002B01D10123D0E0DF
:10420C006A4B1B6803F007033A689A4210D9674B54
:10421C001B6823F0070265493B6813430B60634B33
:10422C001B6803F007033A689A4201D00123B8E0F7
:10423C007B681B6803F00203002B20D07B681B6893
:10424C0003F00403002B05D0594B5B68584A43F428
:10425C00E06353607B681B6803F00803002B05D0F8
:10426C00534B5B68524A43F460535360504B5B684A
:10427C0023F0F0027B689B684D4913434B607B68CD
:10428C001B6803F00103002B40D07B685B68012B9B
:10429C0007D1474B1B6803F40033002B15D10123C6
:1042AC007FE07B685B68022B07D1414B1B6803F0F6
:1042BC000073002B09D1012373E03D4B1B6803F005
:1042CC000203002B01D101236BE0394B5B6823F017
:1042DC0003027B685B68364913434B60FEF73EFB79
:1042EC00F8600AE0FEF73AFB0246FB68D31A41F28B
:1042FC008832934201D9032353E02D4B5B6803F0C2
:10430C000C027B685B689B009A42EBD1274B1B68C5
:10431C0003F007033A689A4210D2244B1B6823F02F
:10432C00070222493B6813430B60204B1B6803F0C8
:10433C0007033A689A4201D0012332E07B681B687C
:10434C0003F00403002B08D0194B5B6823F4E062E4
:10435C007B68DB68164913434B607B681B6803F072
:10436C000803002B09D0124B5B6823F460527B6866
:10437C001B69DB000E4913434B6000F021F8024629
:10438C000B4B5B681B0903F00F030A49CB5C22FA49
:10439C0003F3094A1360094B1B681846FEF79CFA95
:1043AC00002318461037BD4680BD00BF00200240D8
:1043BC0000100240DC5100084C000020500000208E
:1043CC0080B487B000AF0023FB600023BB600023E8
:1043DC007B6100237B6000233B611E4B5B68FB60B1
:1043EC00FB6803F00C03042B02D0082B03D027E04E
:1043FC00194B3B6127E0FB689B0C03F00F03174A3A
:10440C00D35C7B60FB6803F48033002B10D0114B22
:10441C005B685B0C03F00103114AD35CBB607B68E7
:10442C000D4A03FB02F2BB68B2FBF3F37B6104E0C1
:10443C007B680C4A02FB03F37B617B693B6102E006
:10444C00054B3B6100BF3B6918461C37BD4680BC21
:10445C00704700BF0010024000127A00F4510008AF
:10446C000452000800093D0080B400AF024B1B68E9
:10447C001846BD4680BC70474C00002080B500AF8C
:10448C00FFF7F2FF0246054B5B681B0A03F00703BC
:10449C000349CB5C22FA03F3184680BD001002409E
:1044AC00EC51000880B500AFFFF7DEFF0246054B6C
:1044BC005B68DB0A03F007030349CB5C22FA03F3C6
:1044CC00184680BD00100240EC51000880B485B045
:1044DC0000AF78600A4B1B680A4AA2FB03235B0AF5
:1044EC007A6802FB03F3FB6000BFFB685A1EFA609C
:1044FC00002BF9D100BF00BF1437BD4680BC7047FC
:10450C004C000020D34D621080B582B000AF7860B3
:10451C007B68002B01D1012341E07B6893F83D308F
:10452C00DBB2002B06D17B68002283F83C20786834
:10453C00FEF792F87B68022283F83D207B681A68AC
:10454C007B6804331946104600F074FA7B6801222C
:10455C0083F846207B68012283F83E207B68012289
:10456C0083F83F207B68012283F840207B6801227E
:10457C0083F841207B68012283F842207B6801226A
:10458C0083F843207B68012283F844207B68012256
:10459C0083F845207B68012283F83D2000231846D0
:1045AC000837BD4680BD000080B485B000AF786090
:1045BC007B6893F83D30DBB2012B01D001233AE04C
:1045CC007B68022283F83D207B681B68DA687B6875
:1045DC001B6842F00102DA607B681B68184A934240
:1045EC000ED07B681B68B3F1804F09D07B681B68C9
:1045FC00144A934204D07B681B68134A934211D12E
:10460C007B681B689B6803F00703FB60FB68062B49
:10461C0010D07B681B681A687B681B6842F001022B
:10462C001A6007E07B681B681A687B681B6842F09D
:10463C0001021A60002318461437BD4680BC70472F
:10464C00002C0140000400400008004080B582B0FE
:10465C0000AF78607B681B681B6903F00203022BB8
:10466C0022D17B681B68DB6803F00203022B1BD191
:10467C007B681B686FF002021A617B6801221A7753
:10468C007B681B689B6903F00303002B03D07868DD
:10469C0000F0B4F905E0786800F0A7F9786800F04C
:1046AC00B6F97B6800221A777B681B681B6903F0DC
:1046BC000403042B22D17B681B68DB6803F0040322
:1046CC00042B1BD17B681B686FF004021A617B689A
:1046DC0002221A777B681B689B6903F44073002BDA
:1046EC0003D0786800F08AF905E0786800F07DF96D
:1046FC00786800F08CF97B6800221A777B681B685D
:10470C001B6903F00803082B22D17B681B68DB684C
:10471C0003F00803082B1BD17B681B686FF00802A1
:10472C001A617B6804221A777B681B68DB6903F0CB
:10473C000303002B03D0786800F060F905E078687B
:10474C0000F053F9786800F062F97B6800221A7760
:10475C007B681B681B6903F01003102B22D17B684C
:10476C001B68DB6803F01003102B1BD17B681B68E4
:10477C006FF010021A617B6808221A777B681B683D
:10478C00DB6903F44073002B03D0786800F036F932
:10479C0005E0786800F029F9786800F038F97B6852
:1047AC0000221A777B681B681B6903F00103012B3D
:1047BC000ED17B681B68DB6803F00103012B07D16A
:1047CC007B681B686FF001021A617868FBF762FF67
:1047DC007B681B681B6903F08003802B0ED17B6800
:1047EC001B68DB6803F08003802B07D17B681B6898
:1047FC006FF080021A61786800F07BFA7B681B68A6
:10480C001B6903F04003402B0ED17B681B68DB68EF
:10481C0003F04003402B07D17B681B686FF040020C
:10482C001A61786800F0FCF87B681B681B6903F060
:10483C002003202B0ED17B681B68DB6803F0200360
:10484C00202B07D17B681B686FF020021A617868F7
:10485C0000F046FA00BF0837BD4680BD80B584B075
:10486C0000AF786039600023FB737B6893F83C30B1
:10487C00012B01D10223B4E07B68012283F83C2098
:10488C007B68022283F83D207B681B689B68BB60B9
:10489C00BB6823F07703BB60BB6823F47F43BB602A
:1048AC007B681B68BA689A603B681B68B3F5005F4D
:1048BC003ED0B3F5005F00F28780B3F5805F00F067
:1048CC008680B3F5805F7FD8702B1AD0702B7BD885
:1048DC00602B50D0602B77D8502B3CD0502B73D8FA
:1048EC00402B58D0402B6FD8302B64D0302B6BD84A
:1048FC00202B60D0202B67D8002B5CD0102B5AD0EB
:10490C0062E07B6818683B6899683B685A683B684A
:10491C00DB6800F068F97B681B689B68BB60BB6850
:10492C0043F07703BB607B681B68BA689A604FE002
:10493C007B6818683B6899683B685A683B68DB6819
:10494C0000F051F97B681B689A687B681B6842F41D
:10495C0080429A603CE07B6818683B6859683B6809
:10496C00DB681A4600F0C8F87B681B6850211846B3
:10497C0000F01FF92CE07B6818683B6859683B68AD
:10498C00DB681A4600F0E6F87B681B686021184665
:10499C0000F00FF91CE07B6818683B6859683B68AD
:1049AC00DB681A4600F0A8F87B681B6840211846A3
:1049BC0000F0FFF80CE07B681A683B681B6819462E
:1049CC00104600F0F6F803E00123FB7300E000BF93
:1049DC007B68012283F83D207B68002283F83C2011
:1049EC00FB7B18461037BD4680BD80B483B000AF4A
:1049FC00786000BF0C37BD4680BC704780B483B074
:104A0C0000AF786000BF0C37BD4680BC704780B4E7
:104A1C0083B000AF786000BF0C37BD4680BC7047D8
:104A2C0080B483B000AF786000BF0C37BD4680BC4B
:104A3C007047000080B485B000AF786039607B6847
:104A4C001B68FB607B68294A93420BD07B68B3F1EF
:104A5C00804F07D07B68264A934203D07B68254A57
:104A6C00934208D1FB6823F07003FB603B685B68E2
:104A7C00FA681343FB607B681C4A93420BD07B683B
:104A8C00B3F1804F07D07B68194A934203D07B68FF
:104A9C00184A934208D1FB6823F44073FB603B68CF
:104AAC00DB68FA681343FB60FB6823F080023B6809
:104ABC005B691343FB607B68FA681A603B689A6811
:104ACC007B68DA623B681A687B689A627B68074A83
:104ADC00934203D13B681A697B681A637B68012295
:104AEC005A6100BF1437BD4680BC7047002C014092
:104AFC00000400400008004080B487B000AFF860AC
:104B0C00B9607A60FB681B6A7B61FB681B6A23F0E7
:104B1C000102FB681A62FB689B693B613B6923F0ED
:104B2C00F0033B617B681B013A6913433B617B6972
:104B3C0023F00A037B617A69BB6813437B61FB68D2
:104B4C003A699A61FB687A691A6200BF1C37BD46E4
:104B5C0080BC704780B487B000AFF860B9607A60F1
:104B6C00FB681B6A7B61FB681B6A23F01002FB6805
:104B7C001A62FB689B693B613B6923F470433B61A0
:104B8C007B681B033A6913433B617B6923F0A003E9
:104B9C007B61BB681B017A6913437B61FB683A69D3
:104BAC009A61FB687A691A6200BF1C37BD4680BCEB
:104BBC00704780B485B000AF786039607B689B68C3
:104BCC00FB60FB6823F07003FB603A68FB681343DF
:104BDC0043F00703FB607B68FA689A6000BF1437E8
:104BEC00BD4680BC704780B487B000AFF860B96038
:104BFC007A603B60FB689B687B617B6923F47F4335
:104C0C007B613B681A027B681A43BB6813437A6961
:104C1C0013437B61FB687A699A6000BF1C37BD4601
:104C2C0080BC704780B485B000AF786039607B6819
:104C3C0093F83C30012B01D1022346E07B68012222
:104C4C0083F83C207B68022283F83D207B681B683C
:104C5C005B68FB607B681B689B68BB60FB6823F030
:104C6C007003FB603B681B68FA681343FB607B684E
:104C7C001B68FA685A607B681B68164A93420ED010
:104C8C007B681B68B3F1804F09D07B681B68124AA4
:104C9C00934204D07B681B68104A93420CD1BB68CA
:104CAC0023F08003BB603B685B68BA681343BB604E
:104CBC007B681B68BA689A607B68012283F83D2088
:104CCC007B68002283F83C20002318461437BD462D
:104CDC0080BC7047002C01400004004000080040DC
:104CEC0080B483B000AF786000BF0C37BD4680BC89
:104CFC00704780B483B000AF786000BF0C37BD46FE
:104D0C0080BC704780B582B000AF78607B68002BA8
:104D1C0001D1012342E07B6893F84130DBB2002BD8
:104D2C0006D17B68002283F840207868FDF7D4FC1C
:104D3C007B68242283F841207B681B68DA687B68D7
:104D4C001B6822F40052DA60786800F02BF87B685C
:104D5C001B681A697B681B6822F490421A617B6895
:104D6C001B685A697B681B6822F02A025A617B68AF
:104D7C001B68DA687B681B6842F40052DA607B6857
:104D8C0000225A647B68202283F841207B68202211
:104D9C0083F842207B6800225A63002318460837A8
:104DAC00BD4680BD80B584B000AF78607B681B6861
:104DBC001B6923F440517B68DA687B681B680A43E3
:104DCC001A617B689A687B681B691A437B685B690C
:104DDC001343BB607B681B68DB6823F4B05323F080
:104DEC000C037A681268B9680B43D3607B681B6844
:104DFC005B6923F440717B689A697B681B680A4382
:104E0C005A617B681B682C4A934203D1FFF74AFB1B
:104E1C00F86002E0FFF732FBF860FA6813469B007B
:104E2C0013449A001A447B685B689B00B2FBF3F353
:104E3C00224AA2FB03235B091901FA6813469B0063
:104E4C0013449A001A447B685B689B00B2FBF3F234
:104E5C001A4BA3FB02035B09642000FB03F3D31A78
:104E6C001B013233154AA2FB03235B0903F0F00349
:104E7C001944FA6813469B0013449A001A447B6841
:104E8C005B689B00B2FBF3F20C4BA3FB02035B09C8
:104E9C00642000FB03F3D31A1B013233074AA2FB35
:104EAC0003235B0903F00F027B681B680A449A60BA
:104EBC0000BF1037BD4680BD003801401F85EB5147
:104ECC00024B0146186800F02DB800BF58000020B6
:104EDC00024B0146186800F0F5B800BF58000020DE
:104EEC0070B50F4E0C463168054611B900F0AEF89E
:104EFC0030602146284600F0A9F8431C03D14FF03E
:104F0C00FF34204670BDC41C24F00304A042F8D02A
:104F1C00211A284600F09AF80130F2D1EFE700BFD1
:104F2C00E00200202DE9F843CD1C25F003050835DF
:104F3C000C2D38BF0C25002D064601DBA94204D9E7
:104F4C000C2333600020BDE8F883DFF8D48000F038
:104F5C0069F8D8F800301C4644BB29463046FFF7A8
:104F6C00BFFF431C044658D1D8F800402746002FF9
:104F7C0043D1002C4BD023683946304604EB03094F
:104F8C0000F064F8814542D1216830466D1A2946FB
:104F9C00FFF7A6FF01303AD023682B442360D8F8E2
:104FAC0000305A6862BBC8F800700FE02268521BD0
:104FBC0020D40B2A17D96119A342256018BF596058
:104FCC00636808BFC8F8001062514B60304600F0AF
:104FDC002FF804F10B00231D20F00700C21A1CBF90
:104FEC001B1AA350AFE76268A3420CBFC8F800209D
:104FFC005A60EBE723466468AEE73C467F68B6E749
:10500C001A465B68A342FBD100235360DEE70C23F6
:10501C003046336000F00CF894E70560D6E700BF2B
:10502C00E4020020014800F04BB800BF240400202B
:10503C00014800F046B800BF240400200346024497
:10504C00934200D1704703F8011BF9E738B50023F0
:10505C00054D044608462B60FDF7C6FB431C02D1E8
:10506C002B6803B1236038BD20040020014B186865
:10507C00704700BF5800002070B500260C4D0D4C39
:10508C00641BA410A64209D100F064F800260A4D56
:10509C000A4C641BA410A64205D170BD55F8043B04
:1050AC0098470136EEE755F8043B98470136F2E78E
:1050BC000852000808520008085200080C52000858
:1050CC007047704738B50546002940D051F8043C6C
:1050DC000C1F002BB8BFE418FFF7A4FF1C4A136881
:1050EC0033B9636014602846BDE83840FFF7A0BFB1
:1050FC00A34208D9206821188B4201BF19685B684C
:10510C0009182160EDE71A465B680BB1A342FAD986
:10511C0011685018A0420BD12068014450188342EA
:10512C001160E0D118685B68084410605360DAE7DE
:10513C0002D90C232B60D6E7206821188B4201BFC3
:10514C0019685B680918216063605460CBE738BD4F
:10515C00E4020020F8B500BFF8BC08BC9E467047BE
:0C516C00F8B500BFF8BC08BC9E467047B8
:1051780054494D45523A00004C6967687420310023
:105188004C69676874203200524544205345545492
:10519800494E4700414D4245522053455454494ECB
:1051A80047000000475245454E2053455454494E48
:1051B80047000000534C4F57444F574E204D4F4423
:1051C800450000004D414E55414C204D4F4445008F
:1051D800303000000000000000000000010203045D
:1051E8000607080900000000010203040203040581
:1051F800060708090A0B0C0D0E0F1010010200001B
:045208003101000868
:04520C000D01000888
:105210000801000001000000030000000100000080
:10522000FFFFFFFF03000000050000000200000078
:105230000300000005000000020000000300000061
:1052400005000000FFFFFFFFFA000000FA00000069
:1052500002000000473A0000523A00000024F40027
:1052600010000000010000005C00002000000000B1
:10527000E802002050030020B803002000000000D6
:10528000000000000000000000000000000000001E
:10529000000000000000000000000000000000000E
:1052A00000000000000000000000000000000000FE
:0852B0000000000000000000F6
:040000050800286D5A
:00000001FF
